:020000040800F2
:1000000070040020A9010008FF0C0008870C0008FC
:10001000FD0C0008B5020008390F000800000000C0
:10002000000000000000000000000000030D0008B8
:10003000B702000800000000010D0008050D0008CF
:10004000C3010008C3010008C3010008C301000880
:10005000C3010008C3010008C3010008C301000870
:10006000C3010008C3010008C3010008C301000860
:10007000C3010008C3010008C3010008C301000850
:10008000C3010008C3010008C3010008000000000C
:10009000000000000000000000000000C301000894
:1000A000C3010008C3010008C3010008C301000820
:1000B000C3010008C3010008C3010008C301000810
:1000C000C3010008C3010008C3010008C301000800
:1000D000C3010008C3010008C301000800000000BC
:1000E000C3010008C3010008C301000800000000AC
:1000F000000000000000000000000000C301000834
:1001000000000000C3010008C3010008C30100088B
:1001100000000000000000000000000000000000DF
:10012000C3010008C3010008C3010008C30100089F
:10013000C3010008000000000000000000000000F3
:10014000000000000000000000000000C3010008E3
:10015000C3010008C3010008C3010008C30100086F
:10016000C3010008C30100080000000000000000F7
:10017000000000000000000000000000000000007F
:1001800000000000C30100080000000000000000A3
:10019000C3010008DFF80CD000F07AF800480047EF
:1001A000790F000870040020064880470648004781
:1001B000FEE7FEE7FEE7FEE7FEE7FEE7FEE7FEE717
:1001C000FEE7FEE7910D0008950100082DE9F05FBC
:1001D0000546002092469B468846064681464024B6
:1001E0001BE0284641464746224600F041F8534668
:1001F0005A46C01A914110D311461846224600F0C3
:1002000028F82D1A67EB01084F46224601200021ED
:1002100000F01FF817EB00094E41201EA4F1010465
:10022000DFDC484631462A464346BDE8F09FD2B25D
:1002300001E000F8012B491EFBD270470022F6E7CF
:1002400010B513460A4604461946FFF7F0FF20464C
:1002500010BD202A04DB203A00FA02F1002070478A
:100260009140C2F1200320FA03F3194390407047F4
:10027000202A04DB203A21FA02F00021704721FAFB
:1002800002F3D040C2F12002914008431946704762
:10029000064C074D06E0E06840F0010394E80700D3
:1002A00098471034AC42F6D3FFF778FFE80F000808
:1002B00008100008FEE7704770B5044600F0DEF84D
:1002C0000546601C02D004480078044400F0D6F8CB
:1002D000401BA042FAD370BD0C0000202DE9F84F5E
:1002E00000224FF0010803254FF00F0E0B6808FAAB
:1002F00002F42340A34271D14E68012E05D0022E94
:1003000003D0112E01D0122E15D18668570005FAA0
:1003100007FC26EA0C06D1F80CC00CFA07FC4CEAE4
:10032000060CC0F808C04668A6430C79C4F3001454
:10033000944034434460C668570005FA07FC8C6853
:1003400026EA0C06BC403443C4604C68022C01D041
:10035000122C13D1D40800EB8404A346D4F82090C7
:1003600054074FEAD46A0EFA0AF629EA06090E691A
:1003700006FA0AF646EA0906CBF8206004680E7908
:1003800024EA0C0406F00306BE40264306604C68CF
:10039000E40056D52E4C266846F480462660246834
:1003A00022F0030604F4804400942A4C3444A4460A
:1003B000D4F808489607370F0EFA07F6B443264ECE
:1003C000B04201D1002615E0244EB04201D10126F1
:1003D00010E0234EB04202D102260BE031E0214E64
:1003E000B04201D1032605E01F4EB04201D10426E0
:1003F00000E00726BE402643CCF808681B4E346850
:100400004F689C43FF0300D51C433460174E361DD4
:1004100034684F689C43BF0300D51C433460134EBF
:10042000083634684F689C43FF0200D51C43346093
:100430000E4E0C3634684F689C43BF0200D51C43F7
:100440003460521C102AFFF451AFBDE8F88F000051
:1004500044380240003001400000024000040240E5
:1004600000080240000C024000100240003C014025
:100470000AB1816170470904FBE700000148806808
:10048000704700000C000020024881680278114487
:10049000816070470C0000200B4810B5016841F4E2
:1004A00000710160016841F480610160016841F4FC
:1004B00080710160032000F063F8002000F006F86E
:1004C00000F024F8002010BD003C024070B50D4D36
:1004D00004464FF47A712878B1FBF0F00A490968B4
:1004E000B1FBF0F000F0F6FA48B9102C07D2002268
:1004F0002146501E00F024F800206C6070BD0120E1
:1005000070BD00000C000020180000200B4882B0D5
:10051000016841F480410160006800F4804000906F
:100520000648001F016841F080510160006800F03A
:1005300080500090072002B000F022B844380240FA
:10054000F0B40E4B1B680C46C3F30223C3F107053E
:10055000042D00D90425191D072901D2002300E02C
:10056000DB1E012606FA05F1491E214099409E40F6
:10057000761E16403143F0BC00F0DFBC0CED00E00D
:10058000064900F0070208684FF6FF03184040EAEA
:100590000220034A10430860704700000CED00E0A1
:1005A0000000FA052DE9F0470E46050065D0DFF89A
:1005B0001481D8F80000F7B200F00F00B04207D263
:1005C00088F80070D8F8000000F00F00B04254D155
:1005D00028683D4C810712D5400703D5206840F4B8
:1005E000E05020602878000703D5206840F4604080
:1005F00020602068A96820F0F00008432060287877
:10060000C0072DD0304968680839012812D0022867
:1006100013D0032811D00968890700292DDA216831
:1006200021F0030101432160FFF728FF814641F2D9
:10063000883A0EE009688903EFE709688901ECE769
:10064000FFF71CFFA0EB0901514502D90320BDE8CB
:10065000F0872068696800F00C00B0EB810FEFD1E3
:10066000D8F80010404601F00F01B14207D90770D9
:10067000006800F00F00B04201D00120E7E72878C1
:10068000400705D52068E96820F4E0500843206061
:100690002878000706D52068296920F4604040EAE0
:1006A000C100206000F038F82168084AC1F3031146
:1006B000515CC8400649086006480068FFF706FF1D
:1006C0000020C4E7003C024008380240D00F000878
:1006D000180000201000002004480549006809683F
:1006E000044AC1F38221515CC840704718000020C1
:1006F00008380240E00F000804480549006809680E
:10070000044AC1F34231515CC840704718000020D0
:1007100008380240E00F0008154810B5006810F0D6
:100720000C02144813D04110042A0FD0082A0ED10D
:100730000F4C241F2268236802F03F025B0207D59A
:100740002068C0F38810A0FB010106E0084610BD38
:100750002168C1F38811A1FB00010023FFF736FDDA
:100760002168C1F30141491C4900B0FBF1F010BD03
:10077000083802400024F4002DE9F84F040076D038
:100780002078DFF838A3CE4DC00749D0DAF8001042
:100790005046C1F38101012908D00068C0F38100EF
:1007A00002280AD1281D0068400206D52868800367
:1007B00036D560680028E2D032E06068B0F5803F4E
:1007C00010D0B0F5A02F286810D020F48030286019
:1007D000286820F4802028606068A0B1FFF74EFEF2
:1007E00006460CE0286840F48030F4E740F48020AE
:1007F0002860F7E7FFF742FE801B642873D828685B
:100800008003F7D50CE0FFF739FE064605E000BF90
:10081000FFF734FE801B6428F0D828688003F7D4E3
:100820002078DFF8A08280074FF000093ED5DAF883
:100830000010504611F00C0F09D00068C0F3810081
:1008400002280BD19D48001F0068400206D428688A
:10085000800715D5E068012809D111E0E068B8B13A
:100860000120C8F80000FFF709FE064605E020E178
:10087000FFF704FE801B0228C0D828688007F7D540
:100880002868216920F0F80040EAC10028600DE0E6
:10089000C8F80090FFF7F2FD064604E0FFF7EEFD12
:1008A000801B02281FD828688007F7D4207800070B
:1008B00022D5824E844861696C3671B10121016094
:1008C000FFF7DCFD074604E0FFF7D8FDC01B022858
:1008D00009D830688007F7D50EE0C0F80090FFF720
:1008E000CDFD074605E082E0FFF7C8FDC01B0228EA
:1008F0007DD830688007F7D42078400768D5DFF8C6
:10090000BCB100270BF1380BDBF80000C0000BD4A2
:10091000DBF8001041F08051CBF80010DBF800004C
:10092000012700F080500090684E3068C00510D458
:10093000306840F480703060FFF7A0FD009005E063
:10094000FFF79CFD0099401A022850D83068C00576
:10095000F6D55A4EA068683601280FD005283068B1
:1009600010D020F001003060306820F004003060CA
:10097000A068B8B1FFF782FD00900FE0306840F04A
:100980000100F4E740F004003060F7E7FFF776FD80
:100990000099411A41F28830814266D83068800758
:1009A000F4D50EE0FFF76AFD009007E0FFF766FD63
:1009B0000099411A41F28830814256D83068800748
:1009C000F4D42FB1DBF8001021F08051CBF80010E7
:1009D000A069D0B3DAF800205146C2F38102022A9E
:1009E0004AD00228484607D0C8F8600000E03CE042
:1009F000FFF744FD04463BE04746C8F86000FFF7B8
:100A00003DFD064605E000BFFFF738FD801B0228CC
:100A10002BD828688001F7D4D4E907010843A16ADC
:100A20002B4A490802EB0141626A41EA82110843FC
:100A300094F82C1040EA01612048001F0160012059
:100A40003866FFF71BFD044605E034E0FFF716FDAE
:100A5000001B022809D828688001F7D52BE000BFC9
:100A6000FFF70CFD001B022802D90320BDE8F88F18
:100A700028688001F4D41EE00128F7D00868E269F4
:100A800000F48001914214D1226A00F03F019142AA
:100A90000FD147F6C071626A0140914209D1A26A42
:100AA00000F44031914204D1E16A00F07060884264
:100AB00001D00120DAE70020D8E700000838024022
:100AC0000038024000004742800E4742007000405C
:100AD0000000FFFF10B5401EB0F1807F01D3012060
:100AE00010BD4FF0E02460610F21601700F025FA7F
:100AF0000020A06107202061002010BD70B5040017
:100B000004D094F83900002510B106E0012070BD32
:100B100084F83850204600F023F8242084F8390067
:100B20002068C16821F40051C160204600F03EF900
:100B30002068016921F4904101612068416921F038
:100B40002A0141612068C16841F40051C160E56338
:100B5000202084F8390084F83A00002070BD00009D
:100B600010B586B0044614216846FFF767FB1349A9
:100B70002068884220D11248016841F400310160A8
:100B8000006800F4003005900D481038016841F00D
:100B9000010101600068694600F0010005900C2029
:100BA0000090022001900120029003200390072072
:100BB00004900448FFF792FB06B010BD00440040CB
:100BC00040380240000002402DE9F843044690F806
:100BD0003A00994616460D46202852D1BDB1B6B10D
:100BE00094F8380001284CD0012084F83800002700
:100BF000E763222084F83A002C34FFF73FFC24F806
:100C0000026B804624F80A6B04F8387931E0012041
:100C1000BDE8F883E08D401EE085A0684346B0F54E
:100C2000805F4FF000024FF020012046CDF8009089
:100C300004D000F04FF998B10320E9E700F04AF939
:100C40000028F9D1206900282068406803D0C1B28B
:100C500025F8011B0DE0C0F3080125F8021B08E090
:100C6000206900282068406801D000F07F0005F866
:100C7000010BE08D0028CDD1202084F83A0000201F
:100C8000C6E70220C4E7FEE730B587B01421684606
:100C9000FFF7D4FA16480024016841F0040101600E
:100CA000016801F004010591016841F00101016052
:100CB0000068104D00F001000590224620212846D2
:100CC000FFF7D6FB4FF40050CDE9000469460A480F
:100CD0000294FFF703FB202000900120CDE90104DE
:100CE000694628460394FFF7F9FA07B030BD0000C3
:100CF000303802400000024000080240FEE7704722
:100D000070477047FFF7C0BB30B593B030216846DD
:100D1000FFF794FA14210CA8FFF790FA1A48002460
:100D2000016841F080510160006800F0805011902E
:100D30001648016821F4404141F400410160006817
:100D4000022500F4404011900120039010200095EE
:100D500006950490CDE907404FF4A870099004204F
:100D60000A9007200B906846FFF706FD0F20CDE99B
:100D70000C05E802CDE90E4002210CA81094FFF703
:100D800011FC13B030BD000040380240007000403C
:100D90000548016841F47001016003494FF00060AB
:100DA000803908607047000088ED00E02DE9F041CF
:100DB000044600680169E26821F440511143016171
:100DC0002169A068E2690843616911430843216809
:100DD000CA6849F20C639A430243CA6020684169B9
:100DE000A26921F4407111434161E069192764252A
:100DF0003226B0F5004F354A354920684FF00008DB
:100E000006D0884201D0904236D1FFF775FC35E01C
:100E1000884201D0904202D1FFF76EFC01E0FFF75B
:100E20005BFC61684A18A0FB070148EB0803FFF769
:100E3000CDF90146B0FBF5F00201B1FBF5F06FF022
:100E40001803584301EB800006EBC000B0FBF5F03F
:100E500000F0F80002EB4002B1FBF5F0584301EB63
:100E6000800006EBC000B0FBF5F000F00700216841
:100E700010448860BDE8F081FFF72EFC61688B0F9D
:100E80008A00A0FB0701FFF7A1F90146B0FBF5F0CE
:100E90006FF01802504301EB800006EB0010B0FB2E
:100EA000F5F000F0F002B1FBF5F002EB0012B1FB3F
:100EB000F5F06FF01803584301EB800006EB0010CB
:100EC000B0FBF5F000F00F00D1E700000014014086
:100ED000001001402DE9F041984617460E460446A1
:100EE000069D1DE0681C1BD02DB1FFF7C7FAA0EBD3
:100EF0000800A84214D92068C16821F4D071C160EB
:100F00002068416921F001014161202084F8390005
:100F100084F83A00002084F838000320BDE8F0810E
:100F20002068006836EA000004D00020B842D9D01A
:100F30000020F3E70120F9E7FEE70907090E002882
:100F400004DB00F1E02080F80014704700F00F008F
:100F500000F1E02080F8141D704702E008C8121F5D
:100F600008C1002AFAD170477047002001E001C192
:100F7000121F002AFBD17047FFF78EFA114908466D
:100F80004160411C8160FFF7BFFEFFF77DFE0F4807
:100F90000D490C2201604FF4E13141600021816074
:100FA000C160C0E904128161C161FFF7A7FD074973
:100FB0006423042240310548FFF706FE6420FFF752
:100FC0007BF9F4E700000020004400401C000020F2
:100FD00000000000000000000102030406070809E9
:100FE00000000000010203040810000800000020B7
:100FF0001C0000005A0F0008241000081C000020EC
:10100000540400006A0F0008486900000000000056
:1010100000000000010000001000000000000000BF
:041020000024F400B4
:040000050800019559
:00000001FF
